{
  "transactions": [
    {
      "hash": null,
      "transactionType": "CALL",
      "contractName": null,
      "contractAddress": "0x779877a7b0d9e8603169ddbd7836e478b4624789",
      "function": "transferAndCall(address,uint256,bytes)",
      "arguments": [
        "0x9DdfaCa8183c41ad55329BdeeD9F6A8d53168B1B",
        "3000000000000000000",
        "0x5f6a8e10da3aba1a0dfdf2a494e635461ee80363933d69b022d10d714a0b86ac"
      ],
      "transaction": {
        "from": "0x1804c8ab1f12e6bbf3894d4083f33e07309d1f38",
        "to": "0x779877a7b0d9e8603169ddbd7836e478b4624789",
        "gas": "0x1c1ff",
        "value": "0x0",
        "input": "0x4000aea00000000000000000000000009ddfaca8183c41ad55329bdeed9f6a8d53168b1b00000000000000000000000000000000000000000000000029a2241af62c0000000000000000000000000000000000000000000000000000000000000000006000000000000000000000000000000000000000000000000000000000000000205f6a8e10da3aba1a0dfdf2a494e635461ee80363933d69b022d10d714a0b86ac",
        "nonce": "0x2",
        "chainId": "0xaa36a7"
      },
      "additionalContracts": [],
      "isFixedGasLimit": false
    }
  ],
  "receipts": [],
  "libraries": [],
  "pending": [],
  "returns": {},
  "timestamp": 1721911159,
  "chain": 11155111,
  "commit": "a36cf38"
}