{
  "transactions": [
    {
      "hash": "0x58a4e4d0ef94254e7aedc20b1fe89b5fa9657f033af2ab87831cb65745b82fcb",
      "transactionType": "CALL",
      "contractName": null,
      "contractAddress": "0x779877a7b0d9e8603169ddbd7836e478b4624789",
      "function": "transferAndCall(address,uint256,bytes)",
      "arguments": [
        "0x9DdfaCa8183c41ad55329BdeeD9F6A8d53168B1B",
        "3000000000000000000",
        "0x5f6a8e10da3aba1a0dfdf2a494e635461ee80363933d69b022d10d714a0b86ac"
      ],
      "transaction": {
        "from": "0x376902114964b34a88e5fdd7ec34113178a14fa2",
        "to": "0x779877a7b0d9e8603169ddbd7836e478b4624789",
        "gas": "0x1c1ff",
        "value": "0x0",
        "input": "0x4000aea00000000000000000000000009ddfaca8183c41ad55329bdeed9f6a8d53168b1b00000000000000000000000000000000000000000000000029a2241af62c0000000000000000000000000000000000000000000000000000000000000000006000000000000000000000000000000000000000000000000000000000000000205f6a8e10da3aba1a0dfdf2a494e635461ee80363933d69b022d10d714a0b86ac",
        "nonce": "0xc4",
        "chainId": "0xaa36a7"
      },
      "additionalContracts": [],
      "isFixedGasLimit": false
    }
  ],
  "receipts": [
    {
      "status": "0x1",
      "cumulativeGasUsed": "0xdaebca",
      "logs": [
        {
          "address": "0x779877a7b0d9e8603169ddbd7836e478b4624789",
          "topics": [
            "0xddf252ad1be2c89b69c2b068fc378daa952ba7f163c4a11628f55a4df523b3ef",
            "0x000000000000000000000000376902114964b34a88e5fdd7ec34113178a14fa2",
            "0x0000000000000000000000009ddfaca8183c41ad55329bdeed9f6a8d53168b1b"
          ],
          "data": "0x00000000000000000000000000000000000000000000000029a2241af62c0000",
          "blockHash": "0x824a98c8a983bb7357f510608f94c737d151527836cdd7b2ee94f28af69805af",
          "blockNumber": "0x61402e",
          "transactionHash": "0x58a4e4d0ef94254e7aedc20b1fe89b5fa9657f033af2ab87831cb65745b82fcb",
          "transactionIndex": "0x40",
          "logIndex": "0x72",
          "removed": false
        },
        {
          "address": "0x779877a7b0d9e8603169ddbd7836e478b4624789",
          "topics": [
            "0xe19260aff97b920c7df27010903aeb9c8d2be5d310a2c67824cf3f15396e4c16",
            "0x000000000000000000000000376902114964b34a88e5fdd7ec34113178a14fa2",
            "0x0000000000000000000000009ddfaca8183c41ad55329bdeed9f6a8d53168b1b"
          ],
          "data": "0x00000000000000000000000000000000000000000000000029a2241af62c0000000000000000000000000000000000000000000000000000000000000000004000000000000000000000000000000000000000000000000000000000000000205f6a8e10da3aba1a0dfdf2a494e635461ee80363933d69b022d10d714a0b86ac",
          "blockHash": "0x824a98c8a983bb7357f510608f94c737d151527836cdd7b2ee94f28af69805af",
          "blockNumber": "0x61402e",
          "transactionHash": "0x58a4e4d0ef94254e7aedc20b1fe89b5fa9657f033af2ab87831cb65745b82fcb",
          "transactionIndex": "0x40",
          "logIndex": "0x73",
          "removed": false
        },
        {
          "address": "0x9ddfaca8183c41ad55329bdeed9f6a8d53168b1b",
          "topics": [
            "0x1ced9348ff549fceab2ac57cd3a9de38edaaab274b725ee82c23e8fc8c4eec7a",
            "0x5f6a8e10da3aba1a0dfdf2a494e635461ee80363933d69b022d10d714a0b86ac"
          ],
          "data": "0x000000000000000000000000000000000000000000000000000000000000000000000000000000000000000000000000000000000000000029a2241af62c0000",
          "blockHash": "0x824a98c8a983bb7357f510608f94c737d151527836cdd7b2ee94f28af69805af",
          "blockNumber": "0x61402e",
          "transactionHash": "0x58a4e4d0ef94254e7aedc20b1fe89b5fa9657f033af2ab87831cb65745b82fcb",
          "transactionIndex": "0x40",
          "logIndex": "0x74",
          "removed": false
        }
      ],
      "logsBloom": "0x00000004000000000000000000000000000000000020000000000000020000000010000000000000000000000000000000000000000000000000000000000000000000000000000000000008000000000000000000000000000022000020000008000000000000200000008000000000000000000000000000000010000040000000000000000000000000010000800000000020000000000000000000000000000000000000000000000000010000000000000000000000000004000000000000000002000000000000000100000000000000000000000100000000000000000010000000000000800000000000000000000080000000000000000000000000",
      "type": "0x2",
      "transactionHash": "0x58a4e4d0ef94254e7aedc20b1fe89b5fa9657f033af2ab87831cb65745b82fcb",
      "transactionIndex": "0x40",
      "blockHash": "0x824a98c8a983bb7357f510608f94c737d151527836cdd7b2ee94f28af69805af",
      "blockNumber": "0x61402e",
      "gasUsed": "0x133b1",
      "effectiveGasPrice": "0xd9fc01b52",
      "from": "0x376902114964b34a88e5fdd7ec34113178a14fa2",
      "to": "0x779877a7b0d9e8603169ddbd7836e478b4624789",
      "contractAddress": null
    }
  ],
  "libraries": [],
  "pending": [],
  "returns": {},
  "timestamp": 1721912081,
  "chain": 11155111,
  "commit": "a36cf38"
}